{
  "_format": "hh-sol-artifact-1",
  "contractName": "PropertyRegistry",
  "sourceName": "core/PropertyRegistry.sol",
  "abi": [
    {
      "inputs": [
        {
          "internalType": "address",
          "name": "initialOwner",
          "type": "address"
        }
      ],
      "stateMutability": "nonpayable",
      "type": "constructor"
    },
    {
      "inputs": [
        {
          "internalType": "address",
          "name": "owner",
          "type": "address"
        }
      ],
      "name": "OwnableInvalidOwner",
      "type": "error"
    },
    {
      "inputs": [
        {
          "internalType": "address",
          "name": "account",
          "type": "address"
        }
      ],
      "name": "OwnableUnauthorizedAccount",
      "type": "error"
    },
    {
      "anonymous": false,
      "inputs": [
        {
          "indexed": true,
          "internalType": "address",
          "name": "previousOwner",
          "type": "address"
        },
        {
          "indexed": true,
          "internalType": "address",
          "name": "newOwner",
          "type": "address"
        }
      ],
      "name": "OwnershipTransferred",
      "type": "event"
    },
    {
      "anonymous": false,
      "inputs": [
        {
          "indexed": true,
          "internalType": "uint256",
          "name": "propertyId",
          "type": "uint256"
        },
        {
          "indexed": true,
          "internalType": "address",
          "name": "token",
          "type": "address"
        },
        {
          "indexed": false,
          "internalType": "uint256",
          "name": "totalShares",
          "type": "uint256"
        },
        {
          "indexed": false,
          "internalType": "uint256",
          "name": "sharePriceWei",
          "type": "uint256"
        },
        {
          "indexed": false,
          "internalType": "address",
          "name": "owner",
          "type": "address"
        },
        {
          "indexed": false,
          "internalType": "string",
          "name": "metadataURI",
          "type": "string"
        }
      ],
      "name": "PropertyCreated",
      "type": "event"
    },
    {
      "anonymous": false,
      "inputs": [
        {
          "indexed": true,
          "internalType": "uint256",
          "name": "propertyId",
          "type": "uint256"
        },
        {
          "indexed": false,
          "internalType": "string",
          "name": "metadataURI",
          "type": "string"
        }
      ],
      "name": "PropertyMetadataUpdated",
      "type": "event"
    },
    {
      "anonymous": false,
      "inputs": [
        {
          "indexed": true,
          "internalType": "uint256",
          "name": "propertyId",
          "type": "uint256"
        },
        {
          "indexed": false,
          "internalType": "uint256",
          "name": "sharePriceWei",
          "type": "uint256"
        }
      ],
      "name": "PropertySharePriceUpdated",
      "type": "event"
    },
    {
      "anonymous": false,
      "inputs": [
        {
          "indexed": true,
          "internalType": "uint256",
          "name": "propertyId",
          "type": "uint256"
        },
        {
          "indexed": false,
          "internalType": "bool",
          "name": "active",
          "type": "bool"
        }
      ],
      "name": "PropertyStatusChanged",
      "type": "event"
    },
    {
      "inputs": [
        {
          "internalType": "string",
          "name": "metadataURI",
          "type": "string"
        },
        {
          "internalType": "address",
          "name": "fractionalToken",
          "type": "address"
        },
        {
          "internalType": "uint256",
          "name": "totalShares",
          "type": "uint256"
        },
        {
          "internalType": "uint256",
          "name": "sharePriceWei",
          "type": "uint256"
        },
        {
          "internalType": "address",
          "name": "propertyOwner",
          "type": "address"
        }
      ],
      "name": "createProperty",
      "outputs": [
        {
          "internalType": "uint256",
          "name": "propertyId",
          "type": "uint256"
        }
      ],
      "stateMutability": "nonpayable",
      "type": "function"
    },
    {
      "inputs": [
        {
          "internalType": "uint256",
          "name": "start",
          "type": "uint256"
        },
        {
          "internalType": "uint256",
          "name": "count",
          "type": "uint256"
        }
      ],
      "name": "getAllProperties",
      "outputs": [
        {
          "components": [
            {
              "internalType": "string",
              "name": "metadataURI",
              "type": "string"
            },
            {
              "internalType": "address",
              "name": "fractionalToken",
              "type": "address"
            },
            {
              "internalType": "uint256",
              "name": "totalShares",
              "type": "uint256"
            },
            {
              "internalType": "uint256",
              "name": "sharePriceWei",
              "type": "uint256"
            },
            {
              "internalType": "address",
              "name": "propertyOwner",
              "type": "address"
            },
            {
              "internalType": "bool",
              "name": "active",
              "type": "bool"
            }
          ],
          "internalType": "struct PropertyRegistry.Property[]",
          "name": "items",
          "type": "tuple[]"
        }
      ],
      "stateMutability": "view",
      "type": "function"
    },
    {
      "inputs": [
        {
          "internalType": "uint256",
          "name": "propertyId",
          "type": "uint256"
        }
      ],
      "name": "getProperty",
      "outputs": [
        {
          "components": [
            {
              "internalType": "string",
              "name": "metadataURI",
              "type": "string"
            },
            {
              "internalType": "address",
              "name": "fractionalToken",
              "type": "address"
            },
            {
              "internalType": "uint256",
              "name": "totalShares",
              "type": "uint256"
            },
            {
              "internalType": "uint256",
              "name": "sharePriceWei",
              "type": "uint256"
            },
            {
              "internalType": "address",
              "name": "propertyOwner",
              "type": "address"
            },
            {
              "internalType": "bool",
              "name": "active",
              "type": "bool"
            }
          ],
          "internalType": "struct PropertyRegistry.Property",
          "name": "",
          "type": "tuple"
        }
      ],
      "stateMutability": "view",
      "type": "function"
    },
    {
      "inputs": [],
      "name": "nextPropertyId",
      "outputs": [
        {
          "internalType": "uint256",
          "name": "",
          "type": "uint256"
        }
      ],
      "stateMutability": "view",
      "type": "function"
    },
    {
      "inputs": [],
      "name": "owner",
      "outputs": [
        {
          "internalType": "address",
          "name": "",
          "type": "address"
        }
      ],
      "stateMutability": "view",
      "type": "function"
    },
    {
      "inputs": [
        {
          "internalType": "uint256",
          "name": "",
          "type": "uint256"
        }
      ],
      "name": "properties",
      "outputs": [
        {
          "internalType": "string",
          "name": "metadataURI",
          "type": "string"
        },
        {
          "internalType": "address",
          "name": "fractionalToken",
          "type": "address"
        },
        {
          "internalType": "uint256",
          "name": "totalShares",
          "type": "uint256"
        },
        {
          "internalType": "uint256",
          "name": "sharePriceWei",
          "type": "uint256"
        },
        {
          "internalType": "address",
          "name": "propertyOwner",
          "type": "address"
        },
        {
          "internalType": "bool",
          "name": "active",
          "type": "bool"
        }
      ],
      "stateMutability": "view",
      "type": "function"
    },
    {
      "inputs": [],
      "name": "renounceOwnership",
      "outputs": [],
      "stateMutability": "nonpayable",
      "type": "function"
    },
    {
      "inputs": [
        {
          "internalType": "uint256",
          "name": "propertyId",
          "type": "uint256"
        },
        {
          "internalType": "bool",
          "name": "active",
          "type": "bool"
        }
      ],
      "name": "setPropertyActive",
      "outputs": [],
      "stateMutability": "nonpayable",
      "type": "function"
    },
    {
      "inputs": [
        {
          "internalType": "address",
          "name": "newOwner",
          "type": "address"
        }
      ],
      "name": "transferOwnership",
      "outputs": [],
      "stateMutability": "nonpayable",
      "type": "function"
    },
    {
      "inputs": [
        {
          "internalType": "uint256",
          "name": "propertyId",
          "type": "uint256"
        },
        {
          "internalType": "string",
          "name": "metadataURI",
          "type": "string"
        }
      ],
      "name": "updatePropertyMetadataURI",
      "outputs": [],
      "stateMutability": "nonpayable",
      "type": "function"
    },
    {
      "inputs": [
        {
          "internalType": "uint256",
          "name": "propertyId",
          "type": "uint256"
        },
        {
          "internalType": "uint256",
          "name": "sharePriceWei",
          "type": "uint256"
        }
      ],
      "name": "updatePropertySharePrice",
      "outputs": [],
      "stateMutability": "nonpayable",
      "type": "function"
    }
  ],
  "bytecode": "0x60806040523480156200001157600080fd5b506040516200204c3803806200204c8339818101604052810190620000379190620001f4565b80600073ffffffffffffffffffffffffffffffffffffffff168173ffffffffffffffffffffffffffffffffffffffff1603620000ad5760006040517f1e4fbdf7000000000000000000000000000000000000000000000000000000008152600401620000a4919062000237565b60405180910390fd5b620000be81620000c660201b60201c565b505062000254565b60008060009054906101000a900473ffffffffffffffffffffffffffffffffffffffff169050816000806101000a81548173ffffffffffffffffffffffffffffffffffffffff021916908373ffffffffffffffffffffffffffffffffffffffff1602179055508173ffffffffffffffffffffffffffffffffffffffff168173ffffffffffffffffffffffffffffffffffffffff167f8be0079c531659141344cd1fd0a4f28419497f9722a3daafe3b4186f6b6457e060405160405180910390a35050565b600080fd5b600073ffffffffffffffffffffffffffffffffffffffff82169050919050565b6000620001bc826200018f565b9050919050565b620001ce81620001af565b8114620001da57600080fd5b50565b600081519050620001ee81620001c3565b92915050565b6000602082840312156200020d576200020c6200018a565b5b60006200021d84828501620001dd565b91505092915050565b6200023181620001af565b82525050565b60006020820190506200024e600083018462000226565b92915050565b611de880620002646000396000f3fe608060405234801561001057600080fd5b50600436106100a85760003560e01c80638da5cb5b116100715780638da5cb5b1461015157806393d2a5c21461016f578063d3918b7a1461018b578063dba3c099146101bb578063f2fde38b146101d7578063f7b10808146101f3576100a8565b8062d913e0146100ad5780632b9bcb49146100c957806332665ffb146100f957806339500f3414610129578063715018a614610147575b600080fd5b6100c760048036038101906100c29190610fad565b610228565b005b6100e360048036038101906100de9190611191565b61033f565b6040516100f09190611237565b60405180910390f35b610113600480360381019061010e9190611252565b610578565b60405161012091906113b4565b60405180910390f35b610131610712565b60405161013e9190611237565b60405180910390f35b61014f610718565b005b61015961072c565b60405161016691906113e5565b60405180910390f35b61018960048036038101906101849190611460565b610755565b005b6101a560048036038101906101a091906114c0565b610867565b6040516101b2919061164b565b60405180910390f35b6101d560048036038101906101d091906114c0565b610ad9565b005b6101f160048036038101906101ec919061166d565b610bdd565b005b61020d60048036038101906102089190611252565b610c63565b60405161021f969594939291906116f3565b60405180910390f35b610230610d74565b600073ffffffffffffffffffffffffffffffffffffffff166002600084815260200190815260200160002060010160009054906101000a900473ffffffffffffffffffffffffffffffffffffffff1673ffffffffffffffffffffffffffffffffffffffff16036102d5576040517f08c379a00000000000000000000000000000000000000000000000000000000081526004016102cc906117a7565b60405180910390fd5b806002600084815260200190815260200160002060040160146101000a81548160ff021916908315150217905550817f4913279a14e045717d5dc101f12736a9f31ea76548d0c3c8283cf449706d9c648260405161033391906117c7565b60405180910390a25050565b6000610349610d74565b600073ffffffffffffffffffffffffffffffffffffffff168573ffffffffffffffffffffffffffffffffffffffff16036103b8576040517f08c379a00000000000000000000000000000000000000000000000000000000081526004016103af9061182e565b60405180910390fd5b60015490506040518060c001604052808781526020018673ffffffffffffffffffffffffffffffffffffffff1681526020018581526020018481526020018373ffffffffffffffffffffffffffffffffffffffff168152602001600115158152506002600083815260200190815260200160002060008201518160000190816104419190611a5a565b5060208201518160010160006101000a81548173ffffffffffffffffffffffffffffffffffffffff021916908373ffffffffffffffffffffffffffffffffffffffff160217905550604082015181600201556060820151816003015560808201518160040160006101000a81548173ffffffffffffffffffffffffffffffffffffffff021916908373ffffffffffffffffffffffffffffffffffffffff16021790555060a08201518160040160146101000a81548160ff0219169083151502179055509050506001816105149190611b5b565b6001819055508473ffffffffffffffffffffffffffffffffffffffff16817f9fe11725b5e47fa4a375d31017b08f9f3f919a6f5a1cc3fd1e66b1581017136f8686868b6040516105679493929190611b8f565b60405180910390a395945050505050565b610580610ec7565b600260008381526020019081526020016000206040518060c00160405290816000820180546105ae9061187d565b80601f01602080910402602001604051908101604052809291908181526020018280546105da9061187d565b80156106275780601f106105fc57610100808354040283529160200191610627565b820191906000526020600020905b81548152906001019060200180831161060a57829003601f168201915b505050505081526020016001820160009054906101000a900473ffffffffffffffffffffffffffffffffffffffff1673ffffffffffffffffffffffffffffffffffffffff1673ffffffffffffffffffffffffffffffffffffffff16815260200160028201548152602001600382015481526020016004820160009054906101000a900473ffffffffffffffffffffffffffffffffffffffff1673ffffffffffffffffffffffffffffffffffffffff1673ffffffffffffffffffffffffffffffffffffffff1681526020016004820160149054906101000a900460ff1615151515815250509050919050565b60015481565b610720610d74565b61072a6000610dfb565b565b60008060009054906101000a900473ffffffffffffffffffffffffffffffffffffffff16905090565b61075d610d74565b600073ffffffffffffffffffffffffffffffffffffffff166002600085815260200190815260200160002060010160009054906101000a900473ffffffffffffffffffffffffffffffffffffffff1673ffffffffffffffffffffffffffffffffffffffff1603610802576040517f08c379a00000000000000000000000000000000000000000000000000000000081526004016107f9906117a7565b60405180910390fd5b8181600260008681526020019081526020016000206000019182610827929190611be6565b50827fadf717693da3dcba2a1307f4398706220f44f15b75640a26b917bf3475155835838360405161085a929190611ce3565b60405180910390a2505050565b6060600082846108779190611b5b565b90506001548111156108895760015490505b60008482116108995760006108a6565b84826108a59190611d07565b5b90508067ffffffffffffffff8111156108c2576108c1611008565b5b6040519080825280602002602001820160405280156108fb57816020015b6108e8610ec7565b8152602001906001900390816108e05790505b50925060005b81811015610ad0576002600082886109199190611b5b565b81526020019081526020016000206040518060c00160405290816000820180546109429061187d565b80601f016020809104026020016040519081016040528092919081815260200182805461096e9061187d565b80156109bb5780601f10610990576101008083540402835291602001916109bb565b820191906000526020600020905b81548152906001019060200180831161099e57829003601f168201915b505050505081526020016001820160009054906101000a900473ffffffffffffffffffffffffffffffffffffffff1673ffffffffffffffffffffffffffffffffffffffff1673ffffffffffffffffffffffffffffffffffffffff16815260200160028201548152602001600382015481526020016004820160009054906101000a900473ffffffffffffffffffffffffffffffffffffffff1673ffffffffffffffffffffffffffffffffffffffff1673ffffffffffffffffffffffffffffffffffffffff1681526020016004820160149054906101000a900460ff161515151581525050848281518110610ab257610ab1611d3b565b5b60200260200101819052508080610ac890611d6a565b915050610901565b50505092915050565b610ae1610d74565b600073ffffffffffffffffffffffffffffffffffffffff166002600084815260200190815260200160002060010160009054906101000a900473ffffffffffffffffffffffffffffffffffffffff1673ffffffffffffffffffffffffffffffffffffffff1603610b86576040517f08c379a0000000000000000000000000000000000000000000000000000000008152600401610b7d906117a7565b60405180910390fd5b806002600084815260200190815260200160002060030181905550817f9f1630b8081eb8ee00998b3bcb294f84375dee77e5f8dc81052c4bdbf0fad47582604051610bd19190611237565b60405180910390a25050565b610be5610d74565b600073ffffffffffffffffffffffffffffffffffffffff168173ffffffffffffffffffffffffffffffffffffffff1603610c575760006040517f1e4fbdf7000000000000000000000000000000000000000000000000000000008152600401610c4e91906113e5565b60405180910390fd5b610c6081610dfb565b50565b6002602052806000526040600020600091509050806000018054610c869061187d565b80601f0160208091040260200160405190810160405280929190818152602001828054610cb29061187d565b8015610cff5780601f10610cd457610100808354040283529160200191610cff565b820191906000526020600020905b815481529060010190602001808311610ce257829003601f168201915b5050505050908060010160009054906101000a900473ffffffffffffffffffffffffffffffffffffffff16908060020154908060030154908060040160009054906101000a900473ffffffffffffffffffffffffffffffffffffffff16908060040160149054906101000a900460ff16905086565b610d7c610ebf565b73ffffffffffffffffffffffffffffffffffffffff16610d9a61072c565b73ffffffffffffffffffffffffffffffffffffffff1614610df957610dbd610ebf565b6040517f118cdaa7000000000000000000000000000000000000000000000000000000008152600401610df091906113e5565b60405180910390fd5b565b60008060009054906101000a900473ffffffffffffffffffffffffffffffffffffffff169050816000806101000a81548173ffffffffffffffffffffffffffffffffffffffff021916908373ffffffffffffffffffffffffffffffffffffffff1602179055508173ffffffffffffffffffffffffffffffffffffffff168173ffffffffffffffffffffffffffffffffffffffff167f8be0079c531659141344cd1fd0a4f28419497f9722a3daafe3b4186f6b6457e060405160405180910390a35050565b600033905090565b6040518060c0016040528060608152602001600073ffffffffffffffffffffffffffffffffffffffff1681526020016000815260200160008152602001600073ffffffffffffffffffffffffffffffffffffffff1681526020016000151581525090565b6000604051905090565b600080fd5b600080fd5b6000819050919050565b610f5281610f3f565b8114610f5d57600080fd5b50565b600081359050610f6f81610f49565b92915050565b60008115159050919050565b610f8a81610f75565b8114610f9557600080fd5b50565b600081359050610fa781610f81565b92915050565b60008060408385031215610fc457610fc3610f35565b5b6000610fd285828601610f60565b9250506020610fe385828601610f98565b9150509250929050565b600080fd5b600080fd5b6000601f19601f8301169050919050565b7f4e487b7100000000000000000000000000000000000000000000000000000000600052604160045260246000fd5b61104082610ff7565b810181811067ffffffffffffffff8211171561105f5761105e611008565b5b80604052505050565b6000611072610f2b565b905061107e8282611037565b919050565b600067ffffffffffffffff82111561109e5761109d611008565b5b6110a782610ff7565b9050602081019050919050565b82818337600083830152505050565b60006110d66110d184611083565b611068565b9050828152602081018484840111156110f2576110f1610ff2565b5b6110fd8482856110b4565b509392505050565b600082601f83011261111a57611119610fed565b5b813561112a8482602086016110c3565b91505092915050565b600073ffffffffffffffffffffffffffffffffffffffff82169050919050565b600061115e82611133565b9050919050565b61116e81611153565b811461117957600080fd5b50565b60008135905061118b81611165565b92915050565b600080600080600060a086880312156111ad576111ac610f35565b5b600086013567ffffffffffffffff8111156111cb576111ca610f3a565b5b6111d788828901611105565b95505060206111e88882890161117c565b94505060406111f988828901610f60565b935050606061120a88828901610f60565b925050608061121b8882890161117c565b9150509295509295909350565b61123181610f3f565b82525050565b600060208201905061124c6000830184611228565b92915050565b60006020828403121561126857611267610f35565b5b600061127684828501610f60565b91505092915050565b600081519050919050565b600082825260208201905092915050565b60005b838110156112b957808201518184015260208101905061129e565b60008484015250505050565b60006112d08261127f565b6112da818561128a565b93506112ea81856020860161129b565b6112f381610ff7565b840191505092915050565b61130781611153565b82525050565b61131681610f3f565b82525050565b61132581610f75565b82525050565b600060c083016000830151848203600086015261134882826112c5565b915050602083015161135d60208601826112fe565b506040830151611370604086018261130d565b506060830151611383606086018261130d565b50608083015161139660808601826112fe565b5060a08301516113a960a086018261131c565b508091505092915050565b600060208201905081810360008301526113ce818461132b565b905092915050565b6113df81611153565b82525050565b60006020820190506113fa60008301846113d6565b92915050565b600080fd5b600080fd5b60008083601f8401126114205761141f610fed565b5b8235905067ffffffffffffffff81111561143d5761143c611400565b5b60208301915083600182028301111561145957611458611405565b5b9250929050565b60008060006040848603121561147957611478610f35565b5b600061148786828701610f60565b935050602084013567ffffffffffffffff8111156114a8576114a7610f3a565b5b6114b48682870161140a565b92509250509250925092565b600080604083850312156114d7576114d6610f35565b5b60006114e585828601610f60565b92505060206114f685828601610f60565b9150509250929050565b600081519050919050565b600082825260208201905092915050565b6000819050602082019050919050565b600060c083016000830151848203600086015261154982826112c5565b915050602083015161155e60208601826112fe565b506040830151611571604086018261130d565b506060830151611584606086018261130d565b50608083015161159760808601826112fe565b5060a08301516115aa60a086018261131c565b508091505092915050565b60006115c1838361152c565b905092915050565b6000602082019050919050565b60006115e182611500565b6115eb818561150b565b9350836020820285016115fd8561151c565b8060005b85811015611639578484038952815161161a85826115b5565b9450611625836115c9565b925060208a01995050600181019050611601565b50829750879550505050505092915050565b6000602082019050818103600083015261166581846115d6565b905092915050565b60006020828403121561168357611682610f35565b5b60006116918482850161117c565b91505092915050565b600082825260208201905092915050565b60006116b68261127f565b6116c0818561169a565b93506116d081856020860161129b565b6116d981610ff7565b840191505092915050565b6116ed81610f75565b82525050565b600060c082019050818103600083015261170d81896116ab565b905061171c60208301886113d6565b6117296040830187611228565b6117366060830186611228565b61174360808301856113d6565b61175060a08301846116e4565b979650505050505050565b7f4e4f5f50524f5045525459000000000000000000000000000000000000000000600082015250565b6000611791600b8361169a565b915061179c8261175b565b602082019050919050565b600060208201905081810360008301526117c081611784565b9050919050565b60006020820190506117dc60008301846116e4565b92915050565b7f494e56414c49445f544f4b454e00000000000000000000000000000000000000600082015250565b6000611818600d8361169a565b9150611823826117e2565b602082019050919050565b600060208201905081810360008301526118478161180b565b9050919050565b7f4e487b7100000000000000000000000000000000000000000000000000000000600052602260045260246000fd5b6000600282049050600182168061189557607f821691505b6020821081036118a8576118a761184e565b5b50919050565b60008190508160005260206000209050919050565b60006020601f8301049050919050565b600082821b905092915050565b6000600883026119107fffffffffffffffffffffffffffffffffffffffffffffffffffffffffffffffff826118d3565b61191a86836118d3565b95508019841693508086168417925050509392505050565b6000819050919050565b600061195761195261194d84610f3f565b611932565b610f3f565b9050919050565b6000819050919050565b6119718361193c565b61198561197d8261195e565b8484546118e0565b825550505050565b600090565b61199a61198d565b6119a5818484611968565b505050565b5b818110156119c9576119be600082611992565b6001810190506119ab565b5050565b601f821115611a0e576119df816118ae565b6119e8846118c3565b810160208510156119f7578190505b611a0b611a03856118c3565b8301826119aa565b50505b505050565b600082821c905092915050565b6000611a3160001984600802611a13565b1980831691505092915050565b6000611a4a8383611a20565b9150826002028217905092915050565b611a638261127f565b67ffffffffffffffff811115611a7c57611a7b611008565b5b611a86825461187d565b611a918282856119cd565b600060209050601f831160018114611ac45760008415611ab2578287015190505b611abc8582611a3e565b865550611b24565b601f198416611ad2866118ae565b60005b82811015611afa57848901518255600182019150602085019450602081019050611ad5565b86831015611b175784890151611b13601f891682611a20565b8355505b6001600288020188555050505b505050505050565b7f4e487b7100000000000000000000000000000000000000000000000000000000600052601160045260246000fd5b6000611b6682610f3f565b9150611b7183610f3f565b9250828201905080821115611b8957611b88611b2c565b5b92915050565b6000608082019050611ba46000830187611228565b611bb16020830186611228565b611bbe60408301856113d6565b8181036060830152611bd081846116ab565b905095945050505050565b600082905092915050565b611bf08383611bdb565b67ffffffffffffffff811115611c0957611c08611008565b5b611c13825461187d565b611c1e8282856119cd565b6000601f831160018114611c4d5760008415611c3b578287013590505b611c458582611a3e565b865550611cad565b601f198416611c5b866118ae565b60005b82811015611c8357848901358255600182019150602085019450602081019050611c5e565b86831015611ca05784890135611c9c601f891682611a20565b8355505b6001600288020188555050505b50505050505050565b6000611cc2838561169a565b9350611ccf8385846110b4565b611cd883610ff7565b840190509392505050565b60006020820190508181036000830152611cfe818486611cb6565b90509392505050565b6000611d1282610f3f565b9150611d1d83610f3f565b9250828203905081811115611d3557611d34611b2c565b5b92915050565b7f4e487b7100000000000000000000000000000000000000000000000000000000600052603260045260246000fd5b6000611d7582610f3f565b91507fffffffffffffffffffffffffffffffffffffffffffffffffffffffffffffffff8203611da757611da6611b2c565b5b60018201905091905056fea2646970667358221220f04e50b2fdadba8a2634b0d5ea659705bb0bd507685b61bdd9a320af9ff9b5b364736f6c63430008140033",
  "linkReferences": {},
  "deployedLinkReferences": {}
}